{
  "contractName": "StateMachine",
  "abi": [
    {
      "inputs": [
        {
          "internalType": "uint256",
          "name": "_amount",
          "type": "uint256"
        },
        {
          "internalType": "uint256",
          "name": "_interest",
          "type": "uint256"
        },
        {
          "internalType": "uint256",
          "name": "_duration",
          "type": "uint256"
        },
        {
          "internalType": "address payable",
          "name": "_borrower",
          "type": "address"
        },
        {
          "internalType": "address payable",
          "name": "_lender",
          "type": "address"
        }
      ],
      "payable": false,
      "stateMutability": "nonpayable",
      "type": "constructor"
    },
    {
      "constant": true,
      "inputs": [],
      "name": "amount",
      "outputs": [
        {
          "internalType": "uint256",
          "name": "",
          "type": "uint256"
        }
      ],
      "payable": false,
      "stateMutability": "view",
      "type": "function"
    },
    {
      "constant": true,
      "inputs": [],
      "name": "borrower",
      "outputs": [
        {
          "internalType": "address payable",
          "name": "",
          "type": "address"
        }
      ],
      "payable": false,
      "stateMutability": "view",
      "type": "function"
    },
    {
      "constant": true,
      "inputs": [],
      "name": "duration",
      "outputs": [
        {
          "internalType": "uint256",
          "name": "",
          "type": "uint256"
        }
      ],
      "payable": false,
      "stateMutability": "view",
      "type": "function"
    },
    {
      "constant": true,
      "inputs": [],
      "name": "end",
      "outputs": [
        {
          "internalType": "uint256",
          "name": "",
          "type": "uint256"
        }
      ],
      "payable": false,
      "stateMutability": "view",
      "type": "function"
    },
    {
      "constant": true,
      "inputs": [],
      "name": "interest",
      "outputs": [
        {
          "internalType": "uint256",
          "name": "",
          "type": "uint256"
        }
      ],
      "payable": false,
      "stateMutability": "view",
      "type": "function"
    },
    {
      "constant": true,
      "inputs": [],
      "name": "lender",
      "outputs": [
        {
          "internalType": "address payable",
          "name": "",
          "type": "address"
        }
      ],
      "payable": false,
      "stateMutability": "view",
      "type": "function"
    },
    {
      "constant": true,
      "inputs": [],
      "name": "state",
      "outputs": [
        {
          "internalType": "enum StateMachine.State",
          "name": "",
          "type": "uint8"
        }
      ],
      "payable": false,
      "stateMutability": "view",
      "type": "function"
    },
    {
      "constant": false,
      "inputs": [],
      "name": "fund",
      "outputs": [],
      "payable": true,
      "stateMutability": "payable",
      "type": "function"
    },
    {
      "constant": false,
      "inputs": [],
      "name": "reimburse",
      "outputs": [],
      "payable": true,
      "stateMutability": "payable",
      "type": "function"
    }
  ],
  "bytecode": "0x608060405260008060006101000a81548160ff0219169083600281111561002257fe5b021790555034801561003357600080fd5b50604051610b0d380380610b0d833981810160405260a081101561005657600080fd5b81019080805190602001909291908051906020019092919080519060200190929190805190602001909291908051906020019092919050505084600181905550836002819055508260048190555081600560006101000a81548173ffffffffffffffffffffffffffffffffffffffff021916908373ffffffffffffffffffffffffffffffffffffffff16021790555080600660006101000a81548173ffffffffffffffffffffffffffffffffffffffff021916908373ffffffffffffffffffffffffffffffffffffffff16021790555050505050506109d38061013a6000396000f3fe6080604052600436106100865760003560e01c8063bcead63e11610059578063bcead63e14610142578063c19d93fb14610199578063c392f766146101d2578063d3927c15146101fd578063efbe1c1c1461020757610086565b80630fb5a6b41461008b5780637df1f1b9146100b6578063aa8c217c1461010d578063b60d428814610138575b600080fd5b34801561009757600080fd5b506100a0610232565b6040518082815260200191505060405180910390f35b3480156100c257600080fd5b506100cb610238565b604051808273ffffffffffffffffffffffffffffffffffffffff1673ffffffffffffffffffffffffffffffffffffffff16815260200191505060405180910390f35b34801561011957600080fd5b5061012261025e565b6040518082815260200191505060405180910390f35b610140610264565b005b34801561014e57600080fd5b50610157610415565b604051808273ffffffffffffffffffffffffffffffffffffffff1673ffffffffffffffffffffffffffffffffffffffff16815260200191505060405180910390f35b3480156101a557600080fd5b506101ae61043b565b604051808260028111156101be57fe5b60ff16815260200191505060405180910390f35b3480156101de57600080fd5b506101e761044d565b6040518082815260200191505060405180910390f35b610205610453565b005b34801561021357600080fd5b5061021c6105ef565b6040518082815260200191505060405180910390f35b60045481565b600560009054906101000a900473ffffffffffffffffffffffffffffffffffffffff1681565b60015481565b600660009054906101000a900473ffffffffffffffffffffffffffffffffffffffff1673ffffffffffffffffffffffffffffffffffffffff163373ffffffffffffffffffffffffffffffffffffffff1614610327576040517f08c379a00000000000000000000000000000000000000000000000000000000081526004018080602001828103825260148152602001807f6f6e6c79206c656e6465722063616e206c656e6400000000000000000000000081525060200191505060405180910390fd5b600154471461039e576040517f08c379a000000000000000000000000000000000000000000000000000000000815260040180806020018281038252601e8152602001807f63616e206f6e6c79206c656e642074686520657861637420616d6f756e74000081525060200191505060405180910390fd5b6103a860016105f5565b600560009054906101000a900473ffffffffffffffffffffffffffffffffffffffff1673ffffffffffffffffffffffffffffffffffffffff166108fc6001549081150290604051600060405180830381858888f19350505050158015610412573d6000803e3d6000fd5b50565b600660009054906101000a900473ffffffffffffffffffffffffffffffffffffffff1681565b6000809054906101000a900460ff1681565b60025481565b600560009054906101000a900473ffffffffffffffffffffffffffffffffffffffff1673ffffffffffffffffffffffffffffffffffffffff163373ffffffffffffffffffffffffffffffffffffffff1614610516576040517f08c379a000000000000000000000000000000000000000000000000000000000815260040180806020018281038252601b8152602001807f6f6e6c7920626f72726f7765722063616e207265696d6275727365000000000081525060200191505060405180910390fd5b600254600154013414610574576040517f08c379a00000000000000000000000000000000000000000000000000000000081526004018080602001828103825260348152602001806109476034913960400191505060405180910390fd5b61057e60026105f5565b600660009054906101000a900473ffffffffffffffffffffffffffffffffffffffff1673ffffffffffffffffffffffffffffffffffffffff166108fc600254600154019081150290604051600060405180830381858888f193505050501580156105ec573d6000803e3d6000fd5b50565b60035481565b6000600281111561060257fe5b81600281111561060e57fe5b1415610682576040517f08c379a00000000000000000000000000000000000000000000000000000000081526004018080602001828103825260198152602001807f63616e6e6f7420676f206261636b20746f2070656e64696e670000000000000081525060200191505060405180910390fd5b6000809054906101000a900460ff16600281111561069c57fe5b8160028111156106a857fe5b141561071c576040517f08c379a000000000000000000000000000000000000000000000000000000000815260040180806020018281038252601f8152602001807f63616e6e6f74207472616e736974696f6e20746f2073616d652073746174650081525060200191505060405180910390fd5b6001600281111561072957fe5b81600281111561073557fe5b14156107e7576000600281111561074857fe5b6000809054906101000a900460ff16600281111561076257fe5b146107b8576040517f08c379a00000000000000000000000000000000000000000000000000000000081526004018080602001828103825260258152602001806109226025913960400191505060405180910390fd5b60016000806101000a81548160ff021916908360028111156107d657fe5b021790555060045442016003819055505b6002808111156107f357fe5b8160028111156107ff57fe5b141561091e576001600281111561081257fe5b6000809054906101000a900460ff16600281111561082c57fe5b14610882576040517f08c379a000000000000000000000000000000000000000000000000000000000815260040180806020018281038252602481526020018061097b6024913960400191505060405180910390fd5b6003544210156108fa576040517f08c379a00000000000000000000000000000000000000000000000000000000081526004018080602001828103825260168152602001807f6c6f616e206861736e74206d617475726564207965740000000000000000000081525060200191505060405180910390fd5b60026000806101000a81548160ff0219169083600281111561091857fe5b02179055505b5056fe63616e6e6f74206f6e6c7920676f20746f206163746976652066726f6d2070656e64696e67626f72726f776572206e65656420746f207265696d62757273652065786163746c7920616d6f756e74202b20696e74657265737463616e6e6f74206f6e6c7920676f20746f20636c6f7365642066726f6d20616374697665a265627a7a72315820ffe70bc1373f7f8af0a93302ffd01d5ed67aefeb0b6377ec464b73a90374b3fc64736f6c63430005100032",
  "source": "pragma solidity >=0.4.0 <0.7.0;\n\ncontract StateMachine {\n    enum State {\n        PENDING,\n        ACTIVE,\n        CLOSED\n    }\n    State public state = State.PENDING;\n    uint public amount;\n    uint public interest;\n    uint public end;\n    uint public duration;\n    address payable public borrower;\n    address payable public lender;\n    \n    constructor(\n        uint _amount,\n        uint _interest,\n        uint _duration,\n        address payable _borrower,\n        address payable _lender\n        ) public {\n        amount = _amount;\n        interest = _interest;\n        duration = _duration;\n        borrower = _borrower;\n        lender = _lender;\n    }\n    \n    function fund() payable external {\n        require(msg.sender == lender, 'only lender can lend');\n        require(address(this).balance == amount, 'can only lend the exact amount');\n        _transitionTo(State.ACTIVE);\n        borrower.transfer(amount);\n    }\n    \n    function reimburse() payable external {\n        require(msg.sender == borrower, 'only borrower can reimburse');\n        require(msg.value == amount + interest, 'borrower need to reimburse exactly amount + interest');\n        _transitionTo(State.CLOSED);\n        lender.transfer(amount + interest);\n    }\n\n    function _transitionTo(State to) internal {\n      require(to != State.PENDING, 'cannot go back to pending');\n      require(to != state, 'cannot transition to same state');\n      if(to == State.ACTIVE) {\n        require(state == State.PENDING, 'cannot only go to active from pending');\n        state = State.ACTIVE;\n        end = now + duration;\n      }\n      if(to == State.CLOSED) {\n        require(state == State.ACTIVE, 'cannot only go to closed from active');\n        require(now >= end, 'loan hasnt matured yet');\n        state = State.CLOSED;\n      }\n    }\n}\n",
  "sourcePath": "/var/www/html/eattheblocks-pro-master/vueDap30/day16_loan_state_machine/contracts/StateMachine.sol",
  "compiler": {
    "name": "solc",
    "version": "0.5.16+commit.9c3226ce.Emscripten.clang"
  },
  "schemaVersion": "3.3.3",
  "updatedAt": "2021-01-30T16:17:47.895Z",
  "networkType": "ethereum",
  "devdoc": {
    "methods": {}
  },
  "userdoc": {
    "methods": {}
  }
}